:1000000003308A00FF2B00000A108A100A118207B1
:1000100028340C3401340634C624D2220000CC2209
:10002000412B4510CE275700C7307310CC32E13535
:1000300069376700CC22412B4510CE275700C624D4
:10004000D222AB23C1292026C5204B00CC22412B34
:100050004510CE275700D4326D386539613A75396D
:10006000650025322532A0216536803FD8346E10D8
:100070004334E137000134193118B11935192D2AEB
:1000800069370000353084008313000803195628AF
:100090000530F800F701F70B4B28F80B4A282E30F3
:1000A000F700F70B51285428800B48280800083027
:1000B000F8000230F700F70B5B288711A011200829
:1000C00083168700632864288312C20D0712031C5D
:1000D0006F282016200883168700732883122012A9
:1000E00020088316870000008312A01520088316BD
:1000F00087008312871D7A28F80B59280230F700F1
:10010000F70B80288711A0112008831687000000B4
:10011000831220162008831687008E288F289028A7
:1001200091288312A0152008831687008312871D4B
:100130009728F8019B289C28071A78148711A0118A
:1001400020088316870083120712201220088316C6
:100150008700831208004008003A0319B328013AC7
:100160000319D728FC283F0EF700F030F705770871
:100170002404C100C200572000003F0EF700F030F9
:10018000F705770804382404C100C2005720023064
:10019000F700F70BC92800003F0EF700F030F70515
:1001A0007708FB392404C100C2005720FC283F0E09
:1001B000F700F030F705770801382404C100C200C9
:1001C000572000003F0EF700F030F70577080138A0
:1001D00004382404C100C20057200230F700F70B96
:1001E000EF2800003F0EF700F030F70577080138E0
:1001F0002404C100C20057200800201620088316DE
:1002000087000230F700F70B03298312A01520089E
:10021000831687000B290C2983120712201220084D
:10022000831687000230F700F70B14298312871119
:10023000A0112008831687004E308312C200572079
:100240003C0EBE000F30BE053E08BF003D08C0009A
:10025000AB203C080F39BE00BF003D08C000AB20FA
:10026000201220088316870000008312A0152008A2
:10027000831687008312871D3B290230F700F70B96
:100280003F294229000020162008831687000230EB
:10029000F700F70B4929831208000130BC00BD01AB
:1002A000FD200230B50042200130A30008000830D4
:1002B000A4000B138B138B1B5A293230B50042203C
:1002C00020162008831687000230F700F70B6629F6
:1002D0008312A0152008831687006E296F298312C8
:1002E000071220122008831687000230F700F70B50
:1002F000772983128711A0112008831687004E30BA
:100300008312C2005720BF01C001AB200F30B500DF
:1003100042200130AC002C08033C031C9829033018
:10032000BF00C001AB200530B5004220AC0A8B29CC
:100330000230BF00C001AB200530B50042202012C2
:1003400020088316870000008312A015200883165A
:1003500087008312871DAA290230F700F70BAE2908
:10036000B129000020162008831687000230F7000C
:10037000F70BB8298312AC012C08033C031CCB29D2
:100380002C080420AD00BC00BD01FD200530B500E7
:100390004220AC0ABC294D21C0308B048A110A12BC
:1003A0001E2C8E30F7002D08F8002C08F900FA01F9
:1003B000F808031DE5297908F800F9010830F7026B
:1003C000F808031DE529F701ED290310F81BEC29B6
:1003D000F90DF80DF703E529F8138A110A124F2CCD
:1003E0002C080319602AB40030080319602AB407E6
:1003F0000318012A7F30B402031C602A0319602A03
:10040000052A8130B4070318602A3408F700F80180
:10041000F901FA012D08B800B8172E08B7002F0807
:10042000B6001830B400B501361C2E2A3308FA077E
:10043000031C202AF90A031D202AF80A0319B517FC
:100440003208F907031C272AF80A0319B5173108DF
:10045000AE00AE172E08F8070318B517B50DF80C47
:10046000F90CFA0CB80CB70CB60C0310B40B132A29
:100470000130F7070318602AF81B452AB80DFA0D5A
:10048000F90DF80DF7030319602AB81F562AFA0A66
:10049000031D562AF90A031D562AF80A031D562A77
:1004A000F80CF90CFA0CF70A0319602A2D08B500AC
:1004B0003108B506B51F5E2AF817642AF813642AB6
:1004C000F701F801F901FA018A110A12602C8E3045
:1004D000F7002C08F7022D08F9002E08F800F9178C
:1004E000F70803197E2A0310F908031D7A2AF80871
:1004F00003197E2AF90CF80CF70B732AAD1F852A15
:10050000F809F909F80A0319F90A8A110A12692C7B
:100510003608210203188F2A2108B700912A3608CD
:10052000B7003708013A03199F2A033A0319A12A91
:10053000013A0319A42A073A0319A72AAA2AB901DA
:10054000AB2A4030B900AB2A1430B900AB2A543082
:10055000B900AB2AB901350822020318B22A2208D1
:10056000B800B42A3508B800013038023907BA009B
:100570003A088038BB00BC00BD01FD2008003408EB
:100580000C3A0319CA2A063A0319CC2A023A03196B
:10059000D92ADE2A4D21E32AA30A230821020318BF
:1005A000D32A0130A3000130B5002308B600882209
:1005B000E32A1030BC00BD01FD20E32A3408BC0052
:1005C0000130BD00FD2008000B08AC008B13831622
:1005D00003178C170C140000000083120313AC1BCC
:1005E0008B1703170C087F390319382B0313AC0042
:1005F00003170D080313AD0003170F080313AE0014
:100600002C08B400BF222D0803178D0003132E08F9
:1006100003178F0003130B08AF008B138316031708
:100620008C170C140000000083120313AF1B8B17F0
:1006300003170C0D0E0D7F390319382B0313AC0073
:1006400003170D080313AD0003170F080313AE00C3
:100650002C08B400BF222D0803178D0003132E08A9
:1006600003178F008D0A03198F0A0313E42A031757
:10067000031308003508F80134020318422B34082C
:10068000F7004E2BF7010830B600B40DF70D350812
:1006900077020318F700F80DB60B452B0800203041
:1006A0002F1E3030B0002E08F700AE1F5F2BF70969
:1006B000F70A7708AE002D30B000AF172F142E08C0
:1006C000B4006430B5003A237708AE0030307807C4
:1006D000B1002E08B4000A30B5003A233030770755
:1006E000B30030307807B2003008F7003030310204
:1006F00003197E2BAF14AF1B2F15922B3008B100BE
:100700002030B0003030320203198A2B2F14AF1B77
:10071000AF14922B031D2F14031D922B3108B2002E
:100720002030B1002F19992BAF189C2B2F189F2B1D
:10073000A22B3008B400BF223108B400BF22320817
:10074000B400BF223308B400BF2208000B08AF007A
:100750008B13831603178C170C14000000008312F0
:100760000313AF1B8B170318DD2B03170C087F39FE
:100770000313AF0003170D080313B00003170F088E
:100780000313B1002F08B400BF22300803178D00F7
:100790000313310803178F0003130B08B2008B13E8
:1007A000831603178C170C14000000008312031328
:1007B000B21B8B17AE0BDD2BFC2B03170C0D0E0D94
:1007C0007F390313AF0003170D080313B00003179D
:1007D0000F080313B1002F08B400BF22300803171D
:1007E0008D000313310803178F008D0A03198F0A38
:1007F00003100313AE0BA62B8A110A12162D030841
:100800001F398300FF30A0000430A1001430A20083
:100810000130A3000830A4002610A610A615A901D7
:10082000A80183161F149F141F159F1107309C00E9
:100830008313003086008800831257294D218316C8
:100840001F1383121F179F1783169F1783121F14DE
:1008500083161F149F141F159F150030F800831274
:100860001F08C73978049F000D30F700F70B362CAE
:1008700083160915831226110919261583160914E2
:1008800083122610091826141F151F19452C8316CC
:100890001E088312AB00AD012B08AC00D1297A08E9
:1008A000AF007908AE007808AD007708AC002330BF
:1008B000B300DB30B2007930B1007D30B000F029F8
:1008C0007A08AF007908AE007808AD007708AC0070
:1008D000672A7808AA00831689148312A61089183B
:1008E000A6142618952CA61C952C4D210730B50072
:1008F0000130B60088220C3003178D0000308F00C5
:100900000313E4220430B5000230B60088220F3011
:1009100003178D0000308F000313E4220430AC0075
:10092000FA30B5004220AC0B902C261CB92CA6182E
:10093000B92C4D210330B5000130B60088221430A7
:1009400003178D0000308F000313E4220430B5003C
:100950000230B60088221A3003178D0000308F0055
:100960000313E4220430AC00FA30B5004220AC0B93
:10097000B42C2618DD2CA618DD2C4D210330B50033
:100980000130B60088221F3003178D0000308F0021
:100990000313E4220430B5000230B600882226306A
:1009A00003178D0000308F000313E4220430AC00E5
:1009B000FA30B5004220AC0BD82C261C3E2DA61CCC
:1009C0003E2D26191D2D4D210130B500B60088227F
:1009D0002B3003178D0000308F000313E422043006
:1009E000B5000230B60088222A08B4000A30B500EB
:1009F0003A237808AC002A08B4000A30B5003A233C
:100A00007708AD002C08AE001830AF004F232D083A
:100A1000AE001830AF004F23333003178D00003085
:100A20008F00031004300313AE00A62B0430AC007B
:100A3000FA30B5004220AC0B182D261D3E2D4D215D
:100A40000430B5000130B6008822363003178D001F
:100A500000308F000313E4220230B500B600882274
:100A60003B3003178D0000308F000313E422043065
:100A7000AC00FA30B5004220AC0B392D382C6300A5
:02400E00723FFF
:00000001FF
;PIC16F877A
;CRC=C9E0  CREATED="13-May-24 11:31"
