:1000000006308A00AA2E00000A108A100A11820700
:1000100028340C34013406342A10F437A0326E3AF6
:100020006539D02B00002310F3316137D42047000D
:100030005036E530F332A039E3306E00C4274F2943
:10004000A02A4E26CF21CB224400C4274F29A02A24
:100050004E26CF21CB22440054295910C123C1245C
:100060004E004537F4327210F030F339F737723200
:100070003A00C3377239E5317410F030F339F7378D
:1000800072320001C4376F39A02A6E36EF31EB327D
:10009000640054397910C133E1346E005E3084005D
:1000A00083130008031962280530F800F701F70BE5
:1000B0005728F80B56282E30F700F70B5D286028DC
:1000C000800B542808000830F8000230F700F70BC6
:1000D00067288711A0112008831687006F287028D1
:1000E0008312EB0D0712031C7B28201620088316B1
:1000F00087007F28831220122008831687000000C3
:100100008312A0152008831687008312871D862876
:10011000F80B65280230F700F70B8C288711A01127
:1001200020088316870000008312201620088316FB
:1001300087009A289B289C289D288312A0152008B8
:10014000831687008312871DA328F801A728A828F3
:10015000071A78148711A0112008831687008312CC
:1001600007122012200883168700831208006908EE
:10017000003A0319BF28013A0319E3280829680E39
:10018000F700F030F70577082404EA00EB0063205D
:100190000000680EF700F030F705770804382404F3
:1001A000EA00EB0063200230F700F70BD5280000CF
:1001B000680EF700F030F7057708FB392404EA00F1
:1001C000EB0063200829680EF700F030F705770888
:1001D00001382404EA00EB0063200000680EF700F9
:1001E000F030F7057708013804382404EA00EB0002
:1001F00063200230F700F70BFB280000680EF700C1
:10020000F030F705770801382404EA00EB0063209A
:10021000080020162008831687000230F700F70B2D
:100220000F298312A0152008831687001729182983
:100230008312071220122008831687000230F7006D
:10024000F70B202983128711A0112008831687003D
:100250004E308312EB006320650EE7000F30E70598
:100260006708E8006608E900B72065080F39E7006D
:10027000E8006608E900B7202012200883168700EE
:1002800000008312A0152008831687008312871DA3
:1002900047290230F700F70B4B294E2900002016A2
:1002A0002008831687000230F700F70B55298312C8
:1002B00008000130E500E60109210230DE004E2091
:1002C0000130A30008000830A4000B138B138B1B14
:1002D00066293230DE004E20201620088316870063
:1002E0000230F700F70B72298312A015200883163D
:1002F00087007A297B29831207122012200883168F
:1003000087000230F700F70B832983128711A011B1
:100310002008831687004E308312EB006320E8012B
:10032000E901B7200F30DE004E200130DA005A0814
:10033000033C031CA4290330E800E901B720053081
:10034000DE004E20DA0A97290230E800E901B720E2
:100350000530DE004E2020122008831687000000A2
:100360008312A0152008831687008312871DB629E3
:100370000230F700F70BBA29BD290000201620082B
:10038000831687000230F700F70BC4298312DA01C5
:100390005A08033C031CD7295A080420DB00E50057
:1003A000E60109210530DE004E20DA0AC82959216C
:1003B000C0308B048A110A12FA2E08118316081114
:1003C00083128811831688110310750D7E39FC0085
:1003D0000830FB00FB080319082A7C088039803CA0
:1003E0000319F62983120711F829831683120715BA
:1003F0002011200883168700831208158316081120
:100400000310FC0D8312081183160811FB03EA295F
:100410000830FB00FB080319282A76088039803C45
:100420000319162A83120711182A83168312071537
:1004300020112008831687008312081583160811DF
:100440000310F60D8312081183160811FB030A2A04
:1004500083128815831688118312081583160811D4
:1004600083120800FB0108118316081183128811FA
:10047000831688110310740D7E398038F600083019
:10048000F500F50803195F2A76088039803C0319C6
:100490004D2A831207114F2A831683120715201144
:1004A000200883168700831208158316081103108D
:1004B000F60D8312081183160811F503412A08303E
:1004C000F500F5080319752A83120815831608111B
:1004D0000310FB0D08140030831208180130FB04D0
:1004E000081183160811F503612A831288158316F3
:1004F000881183120815831608117B08F8008312EF
:100500000800F3017108F40032227808F300720841
:10051000FF3A7305F4007108F5007408F600DD2158
:100520000800F3017108F40032227808F300730820
:100530007204F4007108F5007408F600DD2108006B
:1005400088158316881183128714A010200883163B
:10055000870083128714A010200883168700B02A12
:10056000B12A83128710A010200883168700B82AAA
:10057000B92A83128714A010200883168700C02A86
:10058000C12A0130F5000F30F6008312DD21C82AA0
:10059000C92A2A30F5008D30F600DD212B30F50018
:1005A0003E30F600DD212D30F5001E30F600DD2155
:1005B0002C30F500F601DD211530F5004030F60055
:1005C000DD211130F5003D30F600DD211430F10061
:1005D0000330F20081221430F40032227808DA006D
:1005E0001430F1000330F20091228A110A12002F18
:1005F0005F0821020318FF2A2108E000012B5F0891
:10060000E0006008013A03190F2B033A0319112B7C
:10061000013A0319142B073A0319172B1A2BE2017D
:100620001B2B4030E2001B2B1430E2001B2B5430FC
:10063000E2001B2BE2015E0822020318222B220893
:10064000E100242B5E08E100013061026207E30053
:1006500063088038E400E500E601092108005D0830
:100660000C3A03193A2B063A03193C2B023A0319A8
:10067000492B4E2B5921532BA30A2308210203187F
:10068000432B0130A3000130DE002308DF00F822F5
:10069000532B1030E500E6010921532B5D08E500DE
:1006A0000130E600092108000B08DA008B138316DD
:1006B00003178C170C140000000083120313DA1BBD
:1006C0008B1703170C087F390319A82B0313DA00C3
:1006D00003170D080313DB0003170F080313DC00D7
:1006E0005A08DD002F235B0803178D0003135C08F5
:1006F00003178F0003130B08DD008B1383160317FA
:100700008C170C140000000083120313DD1B8B17E1
:1007100003170C0D0E0D7F390319A82B0313DA00F4
:1007200003170D080313DB0003170F080313DC0086
:100730005A08DD002F235B0803178D0003135C08A4
:1007400003178F008D0A03198F0A0313542B031705
:100750000313080020102008831687008312071057
:10076000A012200883168700831287162013200802
:100770008316870083120717A013200883168700AB
:1007800083128717831606168312061ACB2B37306F
:10079000F800982CE52B831686168312861AD42B24
:1007A0003430F800982CE52B831606178312061BAD
:1007B000DD2B3130F800982CE52B83168617831239
:1007C000861BE52B2A30F800982C20102008831671
:1007D000870083120714A012200883168700831253
:1007E0008712201320088316870083120717A0138F
:1007F0002008831687008312871783160616831234
:10080000061A062C3830F800982C202C83168616F1
:100810008312861A0F2C3530F800982C202C831662
:1008200006178312061B182C3230F800982C202C47
:10083000831686178312861B202C3030F800982CE4
:10084000201020088316870083120714A0122008A6
:1008500083168700831287162013200883168700CB
:1008600083120713A01320088316870083128717AB
:10087000831606168312061A412C3930F800982C7C
:100880005B2C831686168312861A4A2C3630F800A3
:10089000982C5B2C831606178312061B532C3330BF
:1008A000F800982C5B2C831686178312861B5B2C12
:1008B0002330F800982C201020088316870083121C
:1008C0000714A012200883168700831287162013AE
:1008D00020088316870083120717A01320088316A9
:1008E000870083128713831606168312061A7C2C40
:1008F0004130F800982C962C831686168312861A9F
:10090000852C4230F800982C962C831606178312FB
:10091000061B8E2C4330F800982C962C83168617D5
:100920008312861B962C4430F800982CFF30F80078
:100930000800AA237808DC005C0F9F2C992CAA23BE
:10094000780F9F2C5C08F80008000230EB00EC01E7
:10095000ED0163080E3A0319B12C023A0319B62CC3
:10096000BB2C1230EC001030ED00BB2C7730EC00CB
:100970003030ED00BB2C6C088038F1000230F500FF
:100980007108F600DD210430F1008030F200812290
:100990000A30F1008030F20091220130F500F601BA
:1009A000DD21F001660870020318E52C7008640769
:1009B00084008313651883170008F1000930F500DF
:1009C0007108F600DD21F00AD22C0130F500630831
:1009D000F600DD2163080C3C031DF32C0D30F10003
:1009E0008030F2009122FF30F0000430F400322217
:1009F0007808EF00F003F0080319042D6F18042D98
:100A00006F086D050319F52C0D30F1008030F200F0
:100A10008122F00803197C2D0630F4003222780878
:100A20001B39031D7A2DEB016F086C050139031981
:100A30001B2D0130EB0063080C3C031D792D0A309F
:100A4000F40032227808EF000C30F40032227808EB
:100A50000739EE00EE0803193E2D69088400831360
:100A60006A18831701306F02F700F70DF70DF70DC5
:100A7000F830F70577086E0780004B2D6908840071
:100A800083136A1883176F0DF700F70DF70DF83011
:100A9000F70577088000EF08031D502D0130EF00A7
:100AA0006F08103C0318562D1030EF00F0016F084E
:100AB00070020318722D70086707F8006808FA00C2
:100AC0000318FA0A7808F1007A08F2000930F400F5
:100AD000322271088400831372188317780880000B
:100AE000F00A572D7008670784008313681883176E
:100AF00080017C2D0230EB006B08F80008002630E6
:100B0000DC005B08DE005A08DD000D30F500073020
:100B1000F600DD215D08840083135E1883175C08EE
:100B200080000C30E3005E08E5005D08E400013061
:100B3000E6005E08E8005D08E700EA016030E900D1
:100B4000A5247808DF00DF08031DAA2D6008103CEB
:100B50000319AC2D0230DF005F08F800F808031D10
:100B6000B52D0130F800B72DB72D0030F8008A11EF
:100B70000A12442F5B08DE005A08DD00E1010D3047
:100B8000F500F601DD215D08840083135E188317EC
:100B90009330800001305D07840083135E18831753
:100BA000203080000830F100F20081220C30E30098
:100BB0005E08E5005D08E4000230E6005E08E8003B
:100BC0005D08E700EA016230E900A5247808DF004B
:100BD000DF08031D062EE0016008033C031CFA2D0C
:100BE00060085D07840083135E1883170008E10620
:100BF000E00AEC2D04305D07840083135E18831730
:100C0000000861020319062E0230DF005F08F800B9
:100C10007808DC0005305A07840083135B188317BB
:100C20008001DC08031D182E0130F8001A2E1A2E40
:100C30000030F8008A110A124B2FDE015E08033CD7
:100C4000031C3B2E5E085C07840083135D1883172A
:100C50000008DF005E085A07840083135B188317BF
:100C600000085F02031D372E0130AD00392EAD01A3
:100C70003B2EDE0A1E2E2D08F80008001430DA0084
:100C8000FA30DE004E20DA0B402E08000430DA0085
:100C9000FA30DE004E20DA0B482E0800AE012E0896
:100CA0000F3C031C7E2E32302E07F800FA01031889
:100CB000FA0A7808DA007A08DB0099245A088400D6
:100CC00083135B1883177808800032302E07840066
:100CD00083130008233C03197E2E01302E07DA000F
:100CE000DE000230DF00F82232302E07840083134A
:100CF0000008DA00DD002F23AE0A4F2E8A110A12F7
:100D0000B82FAE012E080F3C031C992E42302E073F
:100D1000840083130008DA0032302E078400831326
:100D200000085A020319972E0030F8009B2EAE0AD5
:100D3000822E0130F8000800AE012E080F3C031C83
:100D4000A92E32302E078400831330308000AE0A83
:100D50009D2E080003081F398300FF30A0000430D7
:100D6000A1001430A2000130A3000830A400AD019E
:100D70003114D301D20183161F149F141F159F1124
:100D800007309C00831383308312A5006F30A600C8
:100D90007230A7009530A8001330A9007C30AA005B
:100DA000CE30AB00A630AC003030B200B300B4009F
:100DB000B500B600B700B800B900BA00BB00BC006F
:100DC000BD00BE00BF00C000C100C2003530C3007E
:100DD0003130C400C5002330C6003030C700C80021
:100DE000C900CA00CB00CC00CD00CE00CF00D0009F
:100DF000D100632900308316860081138312A02A54
:100E00006430DE004E208316091483123110091855
:100E10003114831686118312861559210130DE00A4
:100E2000DF00F8220C3003178D0000308F00031311
:100E300054230130DE000230DF00F82213300317A4
:100E40008D0000308F000313542399247808D900B3
:100E50005908233C031DA52F59210330DE00013022
:100E6000DF00F822183003178D0000308F000313C5
:100E700054230C30DA00FA30DE004E20DA0B3B2F20
:100E8000DB015830DA007F2DF8080319A52FDB01AC
:100E90005430DA00BA2DF8080319A52FDB012530EC
:100EA000DA00DD015430DC001D267808AF00DB01DC
:100EB0002930DA00DD015430DC001D267808B0004E
:100EC0002F0B782F59210230DE000130DF00F8228D
:100ED0001E3003178D0000308F00031354233E266D
:100EE0000830DA00FA30DE004E20DA0B722F462688
:100EF000300B912F59210230DE000130DF00F82243
:100F0000253003178D0000308F00031354233E2635
:100F10000830DA00FA30DE004E20DA0B8A2F46263F
:100F2000A52F59210530DE000130DF00F8222C30DA
:100F300003178D0000308F00031354230830DA00AC
:100F4000FA30DE004E20DA0BA02F59082A3C031D90
:100F5000F72F0C30DD002F230130DE00DF00F822F8
:100F6000313003178D0000308F00031354234E2EB1
:100F70008126780BDF2F0130DE00DF00F8223930C8
:100F800003178D0000308F000313542359210130C3
:100F9000DE00DF00F822423003178D0000308F00A2
:100FA000031354239C260830DA00FA30DE004E206A
:100FB000DA0BD52F0C30DD002F233E26F72F8126AC
:100FC000F808031DF72F59210130DE00DF00F82259
:100FD000493003178D0000308F00031354239C26E3
:100FE0000830DA00FA30DE004E20DA0BF22F032F41
:100FF0000430DA00FA30DE004E20DA0BFA2F6300FC
:02400E00723FFF
:00000001FF
;PIC16F877A
;CRC=88FA  CREATED="12-May-24 19:32"
